:020000040800F2
:10000000F4600024CD130008711500087115000874
:1000100071150008711500087115000871150008A8
:100020007115000871150008711500087115000898
:1000300071150008711500087115000821140008D9
:1000400021140008211400082114000821140008BC
:1000500021140008211400082114000821140008AC
:10006000211400082114000821140008211400089C
:10007000211400082114000821140008211400088C
:100360002114000800B583B0204B009304E0009BEB
:100370001A1D009200221A60009B1D4A9342F6D378
:100380001C4B01931C4B009307E0019A131D019332
:10039000009B191D009112681A60009B174A934236
:1003A000F3D300F0F1F901F0B7F800F0B1FA412011
:1003B00000F090FA02F01EF8422000F08BFA432081
:1003C00000F088FA01F00EF8442000F083FA00F003
:1003D00035FF452000F07EFA0D2000F07BFA0A2060
:1003E00000F078FA02F0DAFA00BFFDE7A00400247A
:1003F000F45C002434030908000000249C04002459
:1004000082B0394B1B680193019A384B134001931A
:10041000354A019B1360364B1B680193019A354B9B
:1004200013400193324A019B1360334B1B680193C5
:10043000019A324B134001932F4A019B1360304BBA
:100440001B680193019A2F4B134001932C4A019B87
:1004500013602D4B1B680193019A2C4B13400193A1
:10046000294A019B13602A4B1B680193019A294B6F
:1004700013400193264A019B1360274B1B6801938D
:10048000019A264B13400193234A019B1360244B8E
:100490001B680193019A234B13400193224B234A7B
:1004A0001A60234B4FF4E0021A60224B224A1A6072
:1004B000224B234A1A60234B214A1A60224B002206
:1004C0001A60224B224A1A60224B00221A60224BE9
:1004D00000221A60214B00221A60214B00221A6070
:1004E00000BF02B0704700BF00440258FFFFF2EAAD
:1004F000C4440258FEFFFFAF084402580C03C0007A
:100500008C440258CC3F007E9044025880808888FA
:1005100094440258C0EFFFC3D0440258FEFCFFFFD2
:10052000F0440258888888FF0C4402580000FF14E9
:10053000CC4402580444025820200001844402584C
:1005400020200101884402589844025880440258EF
:1005500001010100D84402589C440258A0440258AA
:10056000A444025884B000230393002302936F4BEA
:100570001B680193019B43F4803301936B4A019BF9
:100580001360039B01330393684B1B6803F4003330
:100590000293029B002B03D1039B654A9342F0D147
:1005A000624B1B6803F40033002B01D100BFFDE751
:1005B000604B1B680193019B43F0010301935D4A6B
:1005C000019B13605C4B1B680193019B43F001038B
:1005D0000193594A019B1360584B1B680193019B7F
:1005E00023F0F0030193019B43F080030193534AEE
:1005F000019B1360514B1B680193019B23F0E06347
:100600000193019B43F0806301934C4A019B13606B
:100610004A4B1B680193019B23F060530193019B9C
:1006200043F000530193454A019B1360434B1B6801
:100630000193019B23F460430193404A019B1360A3
:100640003E4B1B680193019B23F4E0530193019BF4
:1006500043F480530193394A019B1360384B1B6864
:100660000193019A374B13400193019B43F002130E
:100670000193334A019B1360334B1B680193019A2A
:10068000324B13400193019A314B134301932E4A8D
:10069000019B13602F4B1B680193019B23F07F0389
:1006A0000193019B43F0010301932A4A019B1360CC
:1006B000284B1B680193019B43F060730193254A0B
:1006C000019B1360194B1B680193019B43F08073DE
:1006D0000193164A019B136000BF144B1B6803F083
:1006E0000073002BF9D01C4B1B680193019A1B4B24
:1006F00013400193184A019B1360104B1B68019330
:10070000019B23F003030193019B43F00303019337
:100710000A4A019B136000BF084B1B6803F00C03DF
:100720000C2BF9D100BF00BF04B070470044025841
:1007300000093D004C44025868040058084402581F
:1007400098440258F8FFFCFF0444025800808000DF
:10075000051E000180440258D0440258FFFCFCFFF3
:1007600000B583B0FFF7FEFE064B1B680193019BAB
:1007700043F071030193034A019B136000BF03B070
:100780005DF804FB3844025800B583B00D4B1B687C
:100790000193019B43F0804301930A4A019B13603C
:1007A000094B1B680193019B23F001030193064A47
:1007B000019B1360FFF724FEFFF7D2FF00BF03B0D9
:1007C0005DF804FB004402586804005886B00190AC
:1007D000019B03F01F030493019B9B090393039B5D
:1007E000303B1C2B63D801A252F823F061080008AB
:1007F000AF080008AF080008AF0800086708000845
:10080000AF080008AF080008AF0800086D0800082E
:10081000AF080008AF080008AF0800087308000818
:10082000AF080008AF080008AF0800087908000802
:10083000AF080008AF080008AF0800087F080008EC
:10084000AF080008AF080008AF08000885080008D6
:10085000AF080008AF080008AF0800088B080008C0
:10086000144B059314E0144B059311E0134B0593BF
:100870000EE0134B05930BE0124B059308E0124B6F
:10088000059305E0114B059302E0114B059300BF62
:10089000059B1B6802930122049B02FA03F31A468C
:1008A000029B13430293059B029A1A6000E000BF6B
:1008B00006B0704730440258344402583844025855
:1008C0003C440258404402584444025848440258A8
:1008D0004C44025882B003468DF8073000BF0A4BE3
:1008E0001B6803F08003002BF9D0084A9DF80730FD
:1008F000136000BF044B1B6803F04003002BF9D0CA
:1009000000BF00BF02B070471C44004028440040B4
:1009100000B585B04FF4003200212E4800F022FDD2
:100920002D4800F08BFF2D4800F088FF2C4800F088
:100930005DF82B4800F088F8294B1B680193019B58
:1009400023F001030193264A019B1360244B1B688B
:100950000193234A019B1360224B1B680193214A98
:10096000019B13601E4B1B680193019B03F4004322
:10097000002B0DD040F62C230093009A4FF6F07315
:1009800013400393009B5B0803F0070302930BE003
:1009900040F216530093009A4FF6F07313400393FE
:1009A000009B03F00F030293039A029B13439BB235
:1009B00001930D4A019B1360094B1B680193019B36
:1009C00043F00D030193064A019B136000BF05B07D
:1009D0005DF804FB40440258022709000327090080
:1009E00000440040044400400C44004000B585B081
:1009F0000190019B104A934208D0019B0F4A9342F9
:100A000015D1102303930E4B029305E04FF40033EE
:100A100003930C4B029300BF039A0021029800F04D
:100A2000A1FC00220399029800F09CFC00E000BFAA
:100A300005B05DF804FB00BF004400400010014019
:100A4000244402582044025800B585B00190019B0F
:100A50000D4A934208D0019B0C4A934210D11023B7
:100A600003930B4B029305E04FF400330393094BC0
:100A7000029300BF039A0021029800F073FC00E08B
:100A800000BF05B05DF804FB0044004000100140C9
:100A9000444402584044025800B585B00190019B7F
:100AA0000D4A934208D0019B0C4A934210D1102367
:100AB00003930B4B029305E04FF400330393094B70
:100AC000029300BF00220399029800F04BFC00E063
:100AD00000BF05B05DF804FB004400400010014079
:100AE000444402584044025882B001900091019B56
:100AF0005A68009B13441B68184602B0704784B0C4
:100B0000039002910192039B5A68029B13441A4678
:100B1000019B136000BF04B07047000000B585B0B2
:100B200001900091019B009A1A6200210198FFF741
:100B3000DBFF0390039B23F4F8730393009B03F400
:100B4000F873039A13430393039A00210198FFF764
:100B5000D6FF08210198FFF7C7FF0390039A094BBE
:100B600013400393009A084B1340039A13430393D3
:100B7000039A08210198FFF7C2FF00BF05B05DF896
:100B800004FB00BFFEFBBFFF0104400000B58BB0BB
:100B900001900091EFF311830793079BDBB28DF86F
:100BA0001B3080230593059B83F3118800BF9DF8BC
:100BB0001B308DF82730009B002B1AD000210198A4
:100BC000FFF792FF0890089B03F4F8730893009BCB
:100BD000089A1A6008210198FFF786FF0890089A82
:100BE000214B13400893009B1A68089B1A43009BF3
:100BF0001A6000210198FFF777FF0890089B23F403
:100C0000F8730893089A00210198FFF778FF0421F0
:100C10000198FFF769FF0890089B23F040030893B1
:100C2000089A04210198FFF76AFF08210198FFF74D
:100C30005BFF0890089A0D4B13400893089A08210F
:100C40000198FFF75CFF9DF827308DF813309DF871
:100C500013300393039B83F3118800BF00BF00BFD1
:100C60000BB05DF804FB00BF01044000FEFBBFFFBA
:100C700000B589B001900091EFF311830593059BB6
:100C8000DBB28DF8133080230393039B83F3118829
:100C900000BF9DF813308DF81F3000990198FFF7C1
:100CA0003DFF9DF81F308DF81E309DF81E300693D5
:100CB000069B83F3118800BF00BF00BF09B05DF839
:100CC00004FB000000B589B00190019BD3F884308B
:100CD000049300210498FFF707FF0590059B23F478
:100CE00000430593049B1B8A1A46059B13430593F7
:100CF000059A00210498FFF702FF049B1B8A1BB290
:100D0000002B16DA049BDB685A00049B9B685B0887
:100D10001A44049B9B68B2FBF3F30393039A4FF6C8
:100D2000F07313400793039B5B0803F007030693DC
:100D300013E0049BDA68049B9B685B081A44049BDD
:100D40009B68B2FBF3F30393039A4FF6F0731340DF
:100D50000793039B03F00F030693079A069B134325
:100D60009BB20593059A0C210498FFF7C8FE002159
:100D70000498FFF7B9FE0590059A2D4B1340059393
:100D8000049BDB7C012B04D1059B43F4C0630593DA
:100D900007E0049BDB7C022B03D1059B43F48063BB
:100DA0000593049B1B7D092B07D0049B1B7D082BFF
:100DB00008D1049BDB7C002B04D0059B43F48053BB
:100DC000059307E0049B1B7D072B03D1059B43F094
:100DD00080530593059A00210498FFF790FE0421A3
:100DE0000498FFF781FE0590059B23F4405305937B
:100DF000049B5B7D002B03D0059B43F400530593BC
:100E0000059A04210498FFF77AFE08210498FFF759
:100E10006BFE0590059B23F440730593059A08210A
:100E20000498FFF76CFE00BF09B05DF804FB00BF3B
:100E3000FFE9FFEF00B585B00190019BD3F8843046
:100E40000393039B5B681846FFF7FEFD039B9B69BA
:100E5000184600F0F3FC039BDB69184600F0EEFC3B
:100E600000210398FFF740FE0290029B23F001034C
:100E70000293029A00210398FFF741FE0198FFF7C1
:100E800021FF00210398FFF72FFE0290029B43F001
:100E90000D030293029A00210398FFF730FE039B93
:100EA00000221A62039B01221A700023184605B023
:100EB0005DF804FB00B585B00190019BD3F8843048
:100EC0000393039B00221A70039B5B681846FFF78D
:100ED0008DFD039B5B681846FFF7DEFD039B9B6956
:100EE000184600F0E5FD039BDB69184600F0E0FDC5
:100EF00000BF05B05DF804FB00B585B00190019B13
:100F0000D3F884300393039B9B7C019A08491846CD
:100F100001F0CEFD0290029B002B04D1039B9B7C31
:100F2000184601F03FF8029B184605B05DF804FB37
:100F3000630F000800B585B00190019BD3F88430A1
:100F40000393039B9B7C184601F008F8039B9B7C52
:100F500000220021184601F0ABFD00BF05B05DF88E
:100F600004FB00B58BB0039002910192019B0793A3
:100F7000079BD3F88430069301238DF82330002398
:100F8000099342E000238DF823301C210698FFF7D7
:100F9000ABFD03469AB2069B9A84069B9B8C03F09A
:100FA0002003002B0BD0069B1B6A03F02003002BB1
:100FB00005D007980AF085F801238DF82330069BA9
:100FC0009B8C03F00F03002B0AD024210698FFF717
:100FD0008BFD0F230593059A20210698FFF78FFDBF
:100FE000069B9B8C03F08003002B0BD0069B1B6A97
:100FF00003F08003002B05D0079809F0A8FF012318
:101000008DF82330099B01330993099BFF2B03DCE7
:101010009DF82330002BB5D1002318460BB05DF8A6
:1010200004FB86B0039002910192002305936FF0B8
:101030001803059300BF059B184606B0704700B51E
:1010400085B001900091019BD3F884300393242153
:101050000398FFF749FD0290009B002B07D0039BEC
:101060009B8C1A46009B1A60039B00229A84029B69
:10107000DBB2184605B05DF804FB000000B58BB08C
:1010800001900B468DF80330019BD3F88430089310
:10109000EFF311830693069BDBB28DF817308023A4
:1010A0000493049B83F3118800BF9DF817308DF8DB
:1010B0001F30089B1B6A09939DF80330002B04D056
:1010C000099B43F02003099303E0099A0B4B13405B
:1010D000099309990898FFF7CBFD9DF81F308DF80B
:1010E0000F309DF80F300293029B83F3118800BFED
:1010F00000BF00BF0BB05DF804FB00BFDEFEFFFFCA
:1011000000B585B00190019BD3F8843003931C2176
:101110000398FFF7E9FC034603F02003002B14BFFC
:1011200001230023DBB2184605B05DF804FB00B5CF
:1011300085B001900091019BD3F884300393009B0C
:10114000C3F309031A4628210398FFF7D8FC00BF10
:1011500005B05DF804FB00B58BB001900B468DF82F
:101160000330019BD3F884300993EFF31183069386
:10117000069BDBB28DF8173080230493049B83F326
:10118000118800BF9DF817308DF823309DF803308B
:10119000002B09D0099B1B6A43F080030793079932
:1011A0000998FFF7BBFC0BE0099B1B6A23F0800248
:1011B000099B1A62099B1B6A19460998FFF7AEFC46
:1011C0009DF823308DF80F309DF80F300293029B6D
:1011D00083F3118800BF00BF00BF0BB05DF804FBB4
:1011E00000B585B00190019BD3F8843003931C2196
:1011F0000398FFF779FC034603F08003002B14BF2C
:1012000001230023DBB2184605B05DF804FB00B5EE
:1012100085B00190019BD3F8843003931C2103987F
:10122000FFF762FC034603F04003002B14BF0123C9
:101230000023DBB2184605B05DF804FB00B583B0AF
:101240000023019312E00F4A019B52F82330002B38
:1012500009D00C4A019B52F82330D3F88430002186
:101260001846FFF793FC019B01330193019B072B69
:10127000E9D9054B1846FFF7DDFD00BF03B05DF867
:1012800004FB00BF08FF0408E800002400B587B095
:1012900000230493204B1946204809F093FD1E4B70
:1012A00019461F4809F08EFD012304936B46102256
:1012B0001C4918460CF064FC0023059324E01A4AEC
:1012C000059B52F82330002B18D0174A059B52F883
:1012D0002330DB78002B13D1049B5A1C0492DBB221
:1012E0003033DBB28DF809300F4A059B52F82320CA
:1012F0006B461146184609F065FD02E000BF00E0AC
:1013000000BF059B01330593059B072BD7D900BF71
:1013100000BF07B05DF804FBE800002428FF0408C4
:1013200038FF040844FF040808FF040800B585B02E
:1013300001900B4BD3F88430039302AB194603980A
:10134000FFF724FC019BDBB21846FFF7C3FA029BB0
:1013500019460398FFF78CFC00BF05B05DF804FB4D
:10136000E80000248CB0039002910192EFF3118306
:101370000793079BDBB28DF81B3080230593059BF9
:1013800083F3118800BF9DF81B308DF82F30039B2D
:101390001B680A93029BDB430A9A13400A930A9A3A
:1013A000019B13430A93039B0A9A1A609DF82F30FE
:1013B0008DF827309DF827300893089B83F3118818
:1013C00000BF00BF00BF0CB07047000008B50FF0B1
:1013D0000FFD0023024A9E46104700BF08BD00BF14
:1013E0006503000882B0BFF34F8FBFF36F8F0A4BC6
:1013F00000221A60094B1B680193019B43F40033E0
:101400000193064A019B1360BFF34F8FBFF36F8FA9
:1014100000BF02B0704700BF50EF00E014ED00E0E5
:1014200000B583B0EFF305830093009B019301980F
:1014300000F0DBFD0021019801F08EFB064B1A68DD
:10144000064B1B689A4203D000210E2000F02CFEB0
:1014500000BF03B05DF804FB5C1100248001002490
:1014600000B589B001900091294B0793079B1B6839
:101470000693069B002B03D0069B009AC3F8A82076
:10148000042001F001F8019800F0AFFD019B0E2B44
:101490001DD1069B002B0CD0069BD3F88C30002B63
:1014A00007D0069BD3F8A430002B02D1069800F099
:1014B0008FFEEFF311830593059BDBB28DF813309C
:1014C00080230393039B83F3118800BF03E00099FB
:1014D000019801F041FB0F4B1B680693079B1B68AB
:1014E000069A9A4202D0079B069A1A60069BD3F886
:1014F000A8300093042001F017F8079B1B68002216
:10150000C3F8A820009B184609B05DF804FB00BF93
:101510005C1100248001002484B0EFF31483019354
:10152000019B0393039B43F004030393039B0293E8
:10153000029B83F3148800BF0B4B1B680393039B30
:1015400023F040430393084A039B1360074B1B6837
:101550000393039B43F470030393044A039B1360B8
:1015600000BF04B0704700BF34EF00E088ED00E03A
:10157000EFF3148C7046400702D5EFF3098107E0C2
:10158000EFF308810846703880F30888BFF36F8F47
:101590000A466832EFF311831EF0100F0CBF21EDE5
:1015A000108A40394FF48020E1EE100A21E9FC5FF7
:1015B000EFF305808B46FFF753FFB0E8FC5F1EF0AA
:1015C000100F0CBFB0EC108A40307246520702D4A4
:1015D00080F3088801E080F30988BFF36F8F83F3FD
:1015E00011888CF31488BFF36F8F704700B585B0F6
:1015F0000190019B3D4A934260D0019B3B4A93423C
:101600006FD8019B3A4A934254D0019B384A934287
:1016100067D8019B374A934249D0019B354A934290
:101620005FD8019B344A93423ED0019B324A934299
:1016300057D8019B314A934233D0019B2F4A9342A2
:101640004FD8019B2E4A934228D0019B2C4A9342AB
:1016500047D8019B2B4A93421DD0019B294A9342B4
:101660003FD8019B284A934212D0019B264A9342BD
:1016700037D8019B254A934204D0019B244A9342C8
:1016800003D02EE0012303931CE00223039319E00F
:101690000423039316E00823039313E0102303931A
:1016A00010E0202303930DE0402303930AE08023FE
:1016B000039307E04FF48073039303E04FF4007348
:1016C000039300BF134B0293029B1A68039B1340C2
:1016D000039A9A4206D0039A00210298FFF742FE2D
:1016E00000E000BF05B05DF804FB00BF0028025811
:1016F00000240258001C0258001802580014025816
:1017000000100258000C025800080258000002584D
:10171000000402583C44025886B0039002911346DC
:101720008DF807309DF80730002B08D00122029B6E
:1017300002FA03F30493039B1833059307E0012295
:10174000029B02FA03F30493039B28330593059B42
:10175000049A1A6000BF06B0704784B001900091EF
:10176000019B10330393039B1B6802930122009B90
:1017700002FA03F31A46029B1340002B14BF012305
:101780000023DBB2184604B0704788B00390029182
:101790000192039B1B0A03F00F030593019B072B88
:1017A00005D8029B20330793019B069305E0029B1B
:1017B00024330793019B083B0693079B1B68049304
:1017C000069B9B000F2202FA03F3DB431A46049B9D
:1017D00013400493069B9B00059A02FA03F3049AB4
:1017E00013430493079B049A1A6000BF08B0704724
:1017F00088B0039002910192019B072B05D8029BB0
:1018000020330793019B069305E0029B2433079343
:10181000019B083B0693079B1B680593069B9B0057
:101820000F2202FA03F3DB431A46059B134005938C
:10183000079B059A1A6000BF08B0704700B593B0C7
:101840000190EFF311830A930A9BDBB28DF82730E6
:1018500080230893089B83F3118800BF9DF82730ED
:101860008DF83B30019B1B0903F00F030D930D9B7B
:10187000092B0ED99DF83B308DF81F309DF81F3095
:101880000693069B83F3118800BF00BF6FF015031A
:1018900007E1864A0D9B52F823300C930C98FFF712
:1018A000A5FE019B03F00F030B93019B03F4402360
:1018B000B3F5402F28D0B3F5402F28D8B3F5002F2B
:1018C0001AD0B3F5002F22D8002B03D0B3F5802F08
:1018D00003D01CE000230F9328E0019B03F4804316
:1018E000002B14BF01230023DBB21946019800F03E
:1018F000EDF801230F9319E00B9A0C990198FFF76B
:1019000044FF02230F9311E003230F930EE09DF891
:101910003B308DF817309DF817300493049B83F308
:10192000118800BF00BF6FF01503BAE00C9B1B6865
:1019300011930B9B5B00032202FA03F3DB431A466D
:10194000119B134011930B9B5B000F9A02FA03F358
:10195000119A134311930C9B119A1A600F9B022B3F
:1019600004D00B9A0C990198FFF742FF019B03F4F6
:101970004033B3F5803F05D0B3F5003F05D00023D9
:10198000109305E00123109302E00223109300BF9F
:101990000C9B0C331B6811930B9B5B00032202FA18
:1019A00003F3DB431A46119B134011930B9B5B001F
:1019B000109A02FA03F3119A134311930C9B0C3300
:1019C0001A46119B136001220B9B02FA03F310933A
:1019D0000C9B04331B6811930F9B012B02D00F9BB0
:1019E000022B09D1019B03F40043002B04D0119A70
:1019F000109B1343119304E0109BDB43119A134097
:101A000011930C9B04331A46119B1360002310930F
:101A10000F9B012B02D00F9B022B1AD1019B03F4C9
:101A20004053B3F5405F11D0B3F5405F05D8B3F52F
:101A3000805F05D0B3F5005F05D00023109308E068
:101A40000123109305E00223109302E00323109377
:101A500000BF0C9B08331B6811930B9B5B00032298
:101A600002FA03F3DB431A46119B134011930B9BBD
:101A70005B00109A02FA03F3119A134311930C9B23
:101A800008331A46119B13609DF83B308DF80F30D8
:101A90009DF80F300293029B83F3118800BF00BFB3
:101AA0000023184613B05DF804FB00BF50FF040884
:101AB00000B583B00190019BDBB201930198FFF761
:101AC000BDFE0346184603B05DF804FB00B58DB0BB
:101AD00001900B468DF80330EFF311830593059BBE
:101AE000DBB28DF8133080230393039B83F31188BB
:101AF00000BF9DF813308DF82F30019B1B0903F0B8
:101B00000F030A930F4A0A9B52F823300993019B53
:101B100003F00F0308939DF803301A4608990998BB
:101B2000FFF7FAFD9DF82F308DF81F309DF81F301C
:101B30000693069B83F3118800BF00BF00BF0DB062
:101B40005DF804FB50FF040800B58DB00190EFF381
:101B500011830593059BDBB28DF81330802303932B
:101B6000039B83F3118800BF9DF813308DF82F304D
:101B7000019B1B0903F00F030A93114A0A9B52F8B9
:101B800023300993019B03F00F03089308990998E8
:101B9000FFF7E3FD03468DF81F309DF82F308DF8D9
:101BA0001E309DF81E300693069B83F3118800BFFC
:101BB00000BF9DF81F3018460DB05DF804FB00BF54
:101BC00050FF040800B589B0039002910192EFF331
:101BD00011830793079BDBB28DF81B30802305939D
:101BE000059B83F3118800BF044A0549032009F0CF
:101BF000A5FB044A0021002009F06EFC5C000508EA
:101C000078FF040894FF040800B589B0039002919E
:101C10000192EFF311830793079BDBB28DF81B3022
:101C200080230593059B83F3118800BF054B1B6838
:101C3000054A0649032009F081FB054A00210020DE
:101C400009F04AFC28ED00E0680005089CFF040844
:101C500094FF040800B589B0039002910192EFF35C
:101C600011830793079BDBB28DF81B30802305930C
:101C7000059B83F3118800BF054B1B68054A064985
:101C8000032009F05BFB054A0021002009F024FC39
:101C900028ED00E078000508C4FF040894FF04085C
:101CA00000B589B0039002910192EFF3118307937D
:101CB000079BDBB28DF81B3080230593059B83F3D4
:101CC000118800BF044A0549032009F037FB044A84
:101CD0000021002009F000FC88000508F0FF04083E
:101CE00094FF040800B589B0039002910192EFF3CC
:101CF00011830793079BDBB28DF81B30802305937C
:101D0000059B83F3118800BF044A0549032009F0AD
:101D100015FB044A0021002009F0DEFB94000508B1
:101D20001000050894FF040800B589B003900291E3
:101D30000192EFF311830793079BDBB28DF81B3001
:101D400080230593059B83F3118800BF044A05494E
:101D5000032009F0F3FA044A0021002009F0BCFB3B
:101D6000A40005083800050894FF040884B0019019
:101D7000084B1B680393039B23F07F430393019B52
:101D80001B06039A13430393024A039B136000BF8D
:101D900004B070471CED00E086B003900291019200
:101DA0000093039B0F2B15DD039B103B0593059BB5
:101DB0005B1140339B001A46009B134403F1E02261
:101DC000029B1A60059B03F01F0301229A40019BAE
:101DD0001A6027E0029B154A1A60039B042B04D16A
:101DE000019B4FF480321A601CE0039B052B04D149
:101DF000019B4FF400321A6014E0039B062B04D1C0
:101E0000019B4FF480221A600CE0039B0F2B06D13C
:101E1000029B074A1A60019B01221A6002E04FF000
:101E2000FF3300E00023184606B0704724ED00E0C1
:101E300010E000E000B585B0002301930CE0019BA9
:101E40005B1160339B0003F1E0231A464FF0FF3330
:101E50001360019B20330193019BC82BEFDD2F4BB7
:101E60002F4A1A602F4B4FF080321A602E4B4FF0E2
:101E700080321A602D4B4FF080321A602C4B1B6859
:101E80000133DB0002932B4B039306E0039B4FF0DF
:101E900080321A60039B04330393029B5A1E029202
:101EA000002BF3D1002224490B2000F001FE002278
:101EB0002249032000F0FCFD7020FFF757FF0022AD
:101EC0001F49022000F0F4FD00221E49042000F00A
:101ED000EFFD00221C49052000F0EAFD00221B490D
:101EE000062000F0E5FD002219490E2000F0E0FD7B
:101EF000002218490C2000F0DBFD002216490020CA
:101F000000F0D6FD00230093009B83F3118800BFEF
:101F100062B600BF00BF05B05DF804FB08ED00E04D
:101F20000000000818ED00E01CED00E020ED00E0EE
:101F300004E000E000E400E085230008F51F00084D
:101F4000C51B000819210008091C0008551C0008C1
:101F5000A11C0008E51C0008291D000800B587B079
:101F6000019003AA04A980230198FFF715FF0346F7
:101F7000002B13D1019B0F2B04DD049B1A46039BFE
:101F800013600BE0049B1B680593039BDB43059ADE
:101F900013400593049B1A46059B136000BF07B0CE
:101FA0005DF804FB00B587B0019003AA04A90023E3
:101FB0000198FFF7F1FE0346002B12D1019B0F2B76
:101FC00004DD049B1A46039B13600AE0049B1B6814
:101FD0000593039B059A13430593049B1A46059B9F
:101FE000136000BF07B05DF804FB82B0019000BF32
:101FF00002B0704730B593B0099008910792244B16
:102000001B680C93234B1B680B93234B1B7883F0AB
:102010000103DBB2002B1DD0089B11931E4B012244
:102020001A70119B88331D68119B84331B68119AA9
:102030001268EFF30581109110990B980C9C049491
:1020400003900291019200932B46144A14490120F7
:1020500009F074F90C9B03F00203002BEFF31183DA
:102060000F930F9BDBB28DF83B3080230D930D9BBC
:1020700083F3118800BF01230093089B094A0021C4
:10208000002001F0B1F80023184613B030BD00BFA6
:102090002CED00E028ED00E098100024FC0005087D
:1020A000B4000508F400050800B585B00190009162
:1020B00000230393019B0F2B05DD019BA3F110026D
:1020C000134B1A6020E0019B0F2B10D0019B0F2BAC
:1020D00011DC019B022B06D0019B0E2B0BD14FF084
:1020E0008053039308E04FF00043039304E04FF064
:1020F0008063039300E000BF039B002B04D0039A8E
:1021000000210448FFF72EF900BF05B05DF804FB7D
:1021100000EF00E004ED00E000B58DB00590049103
:102120000392284B1B680B93039BB3F1FF3F2FD106
:10213000049B0A930A9B88331B681B889BB2DB0AAB
:102140009BB203F01F03ADF82630BDF826301D2BDF
:1021500007D0BDF826301E2B03D0BDF826301F2B2C
:1021600007D10A9B88331A680A9B883304321A60A5
:1021700006E00A9B88331A680A9B883302321A6089
:10218000104BFF221A60104B00221A60002315E04A
:10219000EFF311830893089BDBB28DF81F30802387
:1021A0000693069B83F3118800BF01230093049BD1
:1021B000064A0021002001F017F8002318460DB050
:1021C0005DF804FB28ED00E034ED00E00C010508AB
:1021D00000B587B00190EFF305830393039B002BB9
:1021E00014BF01230023DBB2002B02D02A4B1B6853
:1021F00001E02A4B1B680593EFF305830293029BD2
:102200000493019A059B9A4207D1049B0E2B04D09C
:1022100000210E20FFF748FF3AE0019BD3F8A820E9
:10222000019BC3F8A420019BD3F8A830D83B1A46E1
:10223000019BC3F8A820019BD3F8A800019BD3F809
:10224000A430D82219460BF0EAFC019BD3F8A83041
:102250001A46019BD3F8A830D8321A60019BD3F8F4
:10226000A83088330E4A1A60019BD3F8A830043393
:1022700080221A60019BD3F8A8308C334FF0807213
:102280001A60019BD3F8A830843300221A6000BF83
:1022900000BF07B05DF804FB5C110024800100243E
:1022A000A522000800B58DB0344B1B680B930B9B27
:1022B000D3F8A4300093052000F0E6F800BF002317
:1022C0000993099B83F3118800BF62B600BF0B9B83
:1022D000D3F88C300B989847EFF311830593059B47
:1022E000DBB28DF8133080230393039B83F31188B3
:1022F00000BFEFF311830893089BDBB28DF81F300A
:1023000080230693069B83F3118800BF9DF81F303E
:102310008DF82B300B9BD3F89030002B13D00B9BF8
:102320004C331B6803F04003002B0CD19DF82B307D
:102330008DF80B309DF80B300193019B83F31188CE
:1023400000BF00BFBBE70B9B0022C3F88C20052019
:1023500000F0EAF80A4B00221A600B9BD3F8A42085
:102360000B9BC3F8A8200B9B0022C3F8A4200120DC
:1023700000DF00BF0DB05DF804FB00BF800100244A
:102380005C11002410B58AB0059004910392049B5F
:102390000993164B1B680793099B1B6F0893089BB7
:1023A000022B03D8089B002B1AD11AE0089B042BA0
:1023B00000D016E0099B74331B681846099B7833DC
:1023C0001B681946099B7C331B681C46084B1B681D
:1023D000D3F8A83000220092224600F005FF00E06A
:1023E00000BF002318460AB010BD00BF80010024C2
:1023F0005C11002408B500F02DF800F0D9F800BFFA
:1024000008BD000000B583B003468DF807309DF885
:102410000730054A52F8233000211846FFF756FBD3
:1024200000BF03B05DF804FB1401050800B583B0DC
:1024300003468DF807309DF80730054A52F82330DF
:1024400001211846FFF742FB00BF03B05DF804FB13
:102450001401050800B583B00023019309E0094A7F
:10246000019B52F823301846FFF7E8F9019B01332E
:102470000193019B012BF2D900BF00BF03B05DF8AF
:1024800004FB00BF1401050800B583B00190019B57
:10249000013B072B41D801A252F823F0BD240008CC
:1024A000C5240008CD240008E1240008E924000820
:1024B000F1240008FF2400080D2500080020FFF784
:1024C000A1FF2BE00120FFF79DFF27E00020FFF791
:1024D00099FF0120FFF796FF124B01221A701DE0B1
:1024E0000120FFF78FFF19E00020FFF78BFF15E0B9
:1024F0000020FFF787FF0120FFF784FF0EE0002098
:10250000FFF780FF0120FFF77DFF07E00020FFF7C6
:1025100079FF0120FFF776FF00E000BF00BF03B0A6
:102520005DF804FB9910002400B583B00190019B75
:10253000013B072B37D801A252F823F05D25000894
:1025400065250008A72500086D2500087B250008E3
:102550008925000891250008992500080120FFF72A
:1025600065FF21E00020FFF761FF1DE00020FFF77D
:102570005DFF0120FFF75AFF16E00020FFF756FF2E
:102580000120FFF753FF0FE00120FFF74FFF0BE0A3
:102590000020FFF74BFF07E00020FFF747FF012077
:1025A000FFF744FF00E000BF00BF03B05DF804FB8D
:1025B00000B583B00023019309E0094A019B52F85A
:1025C00023301846FFF73AF9019B01330193019B31
:1025D000012BF2DD0223184603B05DF804FB00BFB7
:1025E0001C01050800B583B000230093002301936C
:1025F00014E00E4A009B52F823301846FFF7A4FA65
:102600000346002B07D00122009B02FA03F31A466F
:10261000019B13430193009B01330093009B012B0B
:10262000E7DD019B184603B05DF804FB1C010508BB
:1026300070B598B00B900A9109920B9B002BC0F2D9
:1026400093800B9B012B00F38F80EFF31183159385
:10265000159BDBB28DF8533080231393139B83F3C8
:10266000118800BF9DF853308DF85F30404A0B9BB6
:1026700052F823300DF13202114618460EF066F979
:102680001690169B002B0DDA9DF85F308DF84B30BD
:102690009DF84B301193119B83F3118800BF00BF4D
:1026A000169B62E00A9B002B46D0314A0B9B52F8E6
:1026B00023000DF13303022200210DF0B9FF169023
:1026C000169B002B0DDA9DF85F308DF843309DF896
:1026D00043300F930F9B83F3118800BF00BF169BFD
:1026E00043E09DF83330099A0A9918460EF026F80F
:1026F0009DF832301846FFF755FC9DF833301D46E3
:102700009DF832301E461B4B1B684FF0B0421268DA
:102710001949096819480068194C246806940590FD
:10272000049103920293019600950B9B154A16495A
:10273000062008F003FE0BE09DF832301846FFF744
:102740000DFC9DF8323000220021184600F0B0F94F
:102750009DF85F308DF83B309DF83B300D930D9B1D
:1027600083F3118800BF00BF0023184618B070BD66
:102770001C0105084C440258080000580C00005881
:10278000080400588C0105082401050882B0254B77
:102790000193019B00221A60019B00225A60019B59
:1027A0000833214A1A60019B083301225A60019BB9
:1027B00010331E4A1A60019B103305225A60019B98
:1027C00018331A4A1A60019B183305225A60019B7C
:1027D0002033174A1A60019B203300225A60019B64
:1027E000283308221A60019B283309225A60019B72
:1027F0003033104A1A60019B303300225A60019B2B
:10280000383300221A60019B383309225A60019B39
:10281000403308221A60019B403309225A6000BFEE
:1028200002B070478411002460110024800100244C
:10283000701100246811002400B583B0144B01937B
:10284000019B00225A63019B4C3302221A60019BB8
:10285000104A1A64019B0F4A5A64019B032283F8B1
:102860004820019B0122A3F85020019BAC33012298
:102870001A60019BB03300220021184609F045FC84
:10288000054A019B136000BF03B05DF804FB00BF65
:102890009C1000249D2900085C11002400B583B021
:1028A000114B0193114B1B68019A1A60019B4C3329
:1028B0001B6800221946019802F0BAFA019801F04B
:1028C00087FE01980EF02CFA019802F0B7F90198F2
:1028D00002F028FB019B9B68083303221A6000BFAB
:1028E00003B05DF804FB00BF9C1000247C110024A1
:1028F00008B5FFF7A1FF02F0CBF9FFF747FF06F09D
:1029000022F9024B02221A7000BF08BDCC1100242C
:1029100000B585B001AA02AB114618460DF082FC45
:10292000029B019A114618460BF02EFE10230393CA
:10293000039B9B0018460BF09DFE0346064A13605E
:10294000064A039B1360FFF7A9FF054B03221A7089
:1029500000BF05B05DF804FB7C1100248011002449
:10296000CC11002408B500F087F817F0B1FC00F096
:1029700085F802F0F1F901F0FDFE01F05DFD00F0D7
:1029800073FF1EF049F90EF07DF806F0DEF8024BF9
:1029900004221A7000BF08BDCC11002400B583B01A
:1029A000154B01221A70FFF7A3FFFFF7B1FFFFF7E6
:1029B000D9FF02F0FBFA104B05221A7000F04EF816
:1029C0000D4B06221A700D4B1B680193019BB3F946
:1029D0005030012B03D1019801F062F909E0019B0D
:1029E000B3F950309BB2013B9BB21AB2019BA3F8E2
:1029F00050200DF0CDFCFCE7CC1100248001002418
:102A000000B58DB000230A9303AB184609F0EFFB25
:102A1000642304934FF40063089309F085FA03AA32
:102A2000002301930AAB009313460022064907488E
:102A300001F07AFE0B9003AB184609F029FC00BFA9
:102A40000DB05DF804FB00BF2D0F0108A0010508C3
:102A500008B5FFF7D5FF00BF08BD000008B501228B
:102A60000349044808F010FFFFF7F2FF00BF08BD5C
:102A7000AC010508B001050800BF704700B583B080
:102A80000023019307E0084A019B084942F83310EC
:102A9000019B01330193019BD82BF4DDFFF7CAF9A9
:102AA00000BF03B05DF804FBD0110024C12B000867
:102AB00000B58DB003900291019200230B93039B0C
:102AC000002B04DB039BD82B01DC039B01E06FF0A0
:102AD00015030A930A9B002B02DA0A9B0B9331E041
:102AE000EFF311830893089BDBB28DF81F3080232E
:102AF0000693069B83F3118800BF9DF81F308DF865
:102B00002730029B002B06D10398FFF727FA104BC2
:102B10000293002301930F490A9B029A41F8332044
:102B20000C4A0A9BDB001344019A5A609DF8273037
:102B30008DF817309DF817300493049B83F31188A8
:102B400000BF00BF0B9B18460DB05DF804FB00BF33
:102B5000C12B0008D011002400B587B0019000916E
:102B6000154B059300230493019B002B04DB019B71
:102B7000D82B01DC019B01E06FF015030393039B4D
:102B8000002B10DB039B0D4A52F83330002B0AD088
:102B9000039B0A4A52F833300593039B074ADB0034
:102BA00013445B680493059B049A00990198984725
:102BB00000BF07B05DF804FBC12B0008D011002452
:102BC00000B585B0039002910192039B064A074924
:102BD000032008F0B3FB0398FFF7C0F90023184661
:102BE00005B05DF804FB00BFC8010508B401050885
:102BF000F0B58DB009900891099B0B9367E00B9B92
:102C00000A930A9B089A9A4202D90A9B1B6800E021
:102C100000230A9A04321146089A8A4203D90A9A72
:102C20000432126800E000220A9908310846089927
:102C3000814203D90A990831096800E000210A9805
:102C40000C3004460898A04203D90A980C3000685A
:102C500000E000200A9C10342546089CAC4203D9B1
:102C60000A9C1034246800E000240A9D14352E4686
:102C7000089DB54203D90A9D14352D6800E0002552
:102C80000A9E18363746089EBE4203D90A9E183659
:102C9000366800E000260A9F1C37BC46089F67453F
:102CA00003D90A9F1C373F6800E000270797069664
:102CB0000595049403900291019200930B9B084A9E
:102CC0000849012008F03AFB0B9B20330B930B9A29
:102CD000089B9A4293D900BF00BF0DB0F0BD00BF62
:102CE000A4040508DC01050800B587B00390029133
:102CF00001920093019A009B13440593039B214A80
:102D00002149012008F01AFB019B1E4A1F4901209E
:102D100008F014FB009B1B4A1D49012008F00EFB24
:102D2000029B002B1CD0029B164A1A49012008F076
:102D300005FB029B203B019A9A4202D8029B203B52
:102D40000293059A029BD31AB3F5805F03D9029BC5
:102D500003F58053059305990298FFF749FF0DE0AD
:102D6000009BB3F5805F02D94FF480530093019A22
:102D7000009B134419460198FFF73AFF00BF07B0C4
:102D80005DF804FBB00405081002050820020508E0
:102D9000340205084802050800B593B0039002917B
:102DA00000230593059B18460DF064FE0E904FF42A
:102DB00000630D930E9A0D9B13440C930023119303
:102DC000039B5B6F0B93039BDB6E0A930B9A0A9B2F
:102DD000134409930023109300238DF83F30029A87
:102DE0000E9B9A4206D3029A0C9B9A4202D8029BEF
:102DF000119312E0029A0B9B9A4206D3029A099B06
:102E00009A4202D8029B109307E001238DF83F30CD
:102E1000254A2649012008F091FA119B002B03D185
:102E20009DF83F30002B2BD0002300930D9B0E9A72
:102E300011991F48FFF758FFEFF305830893089B8C
:102E4000002B14BF01230023DBB2002B09D0194B48
:102E50001B68D3F8A8300793079B0693069B1B6853
:102E600000E000231093109A0B9B9A4203D3109A10
:102E7000099B9A4204D30023109301238DF83F301D
:102E8000109B002B03D19DF83F30002B07D000236F
:102E900000930A9B0B9A10990748FFF725FF00BF84
:102EA00013B05DF804FB00BFC00405085C02050810
:102EB000900205085C11002494020508F0B5ADB03D
:102EC000119010911BAB4022002118460AF0EBFE36
:102ED0001BAB40221946119801F0FCFA13AB2022DB
:102EE0001946119800F032FF13AB2C2118460AF056
:102EF000B0FE2B902B9B002B02D02B9B20221A7014
:102F0000119B5B6B0D93119B9B68002B03D0119B56
:102F10009B681B6801E04FF0FF33119A926B0E9291
:102F200011994C310968C91001F003011C4850F88F
:102F3000211011984C30006800F00300194C54F82F
:102F40002000119C4C34246804F48074002C01D0BF
:102F5000502400E02D24119DD5F88050119EF66F6D
:102F6000119F7F6F119AD26E0F921BAA0B920E4A7D
:102F70000A920F9A099208970796069513AD059540
:102F80000494039002910E9A019200930D9B074ABC
:102F90000749012008F0D2F900BF2DB0F0BD00BFF5
:102FA000CC040508DC040508E4020508EC04050867
:102FB0009C02050800B585B0002303930C4A0D4917
:102FC000012008F0BBF903980DF054FD03464FF4BF
:102FD00000620092064A0849012008F0AFF900217A
:102FE000064800F037FE00BF05B05DF804FB00BFE7
:102FF000F8040508F002050860030508BD2E000866
:1030000000B585B00190009100980DF08FFD009BF8
:103010000393039B0293029B1B6819460198FFF7D9
:10302000BBFE00BF05B05DF804FB000000B5B1B009
:10303000099008910792069300232F93099B9B68A0
:10304000002B0DD0099B4C331B6803F00303022BAC
:1030500006D0099B9B681B68184600F045FC2F9022
:103060000AAB184608F028FF0AAA0AAB7D3303937F
:103070000AAB4A3302930AAB353301930AAB1533DB
:1030800000931346194A1A49012008F057F9069B84
:10309000002B01D0069A00E0164A089B002B01D0B5
:1030A000089B00E0134B2F99002901D0124900E042
:1030B00012490998406C049003910F4902910799B5
:1030C000019100931346094A0D49012008F036F991
:1030D0002F9800F09DFC32990998FFF791FF08F0B6
:1030E0004BF900BF31B05DF804FB00BF04050508D3
:1030F000C0030508E8030508E4020508EC03050819
:10310000F403050800B585B0039002910192009385
:10311000FFF750FF08F030F900BF05B05DF804FB81
:1031200000B585B0039002910192009308F024F954
:1031300000BF05B05DF804FB00B58DB00190202103
:103140001E480DF0ABFC00230B932EE00B9B03F00D
:103150000703002B12D10B9B9B00019A134403A879
:10316000174A202109F09AF803AB18460AF089FDA6
:10317000024603AB114618460DF090FC0B9B9B00DA
:10318000019A13441B6803A80E4A202109F086F80F
:1031900003AB18460AF075FD024603AB114618460C
:1031A0000DF07CFC0B9B01330B930B9B352BCDDD82
:1031B00000BF00BF0DB05DF804FB00BF3804050878
:1031C0005C0405086404050808B50720FFF75CF9EE
:1031D000FA200DF089FD0720FFF7A6F9FA200DF07F
:1031E00083FD00BFF1E7000000B599B005900491A0
:1031F00003920293684B1B78DBB2042B8CBF012334
:1032000000238DF85E30EFF305831493149B002B9D
:1032100014BF01230023DBB2002B02D05F4B1B68DD
:1032200001E05F4B1B68169300238DF85F305D480B
:103230000CF0D4FF5B4B0293574B1B78DBB2072B90
:1032400004D90298FFF778FFFFF7BEFF9DF85E30C4
:10325000002B23D0544B1393EFF311831293129B43
:10326000DBB28DF8473080231093109B83F31188D5
:1032700000BF9DF847308DF83F30494B1B680E93D7
:103280000E9BB3F950309BB201339BB21AB20E9B26
:10329000A3F850209DF83F308DF85F309DF86830DE
:1032A000002B06D1169B4C331B6803F00303022B43
:1032B00002D1394B08221A70169B0793029B089380
:1032C000059B0A93049B0B93039B0993324B1B783A
:1032D000DBB2072B94BF01230023DBB21A4607ABF6
:1032E0001946104600F062F80620FFF7CDF808F006
:1032F00043F8029B0093039B049A05991698FFF7E5
:1033000095FE254B1B78DBB2072B1AD9029B009345
:10331000039B049A05991698FFF7F4FE07AB19462C
:10332000022000F043F8029B0093039B049A059946
:103330001698FFF7F5FE0021022000F05BF9FFF779
:1033400043FF9DF85E30002B21D09DF85F308DF853
:1033500037309DF837300C930C9B83F3118800BFF6
:1033600000BF0F4B1B681593159BB3F95030012B11
:1033700003D1159800F094FC09E0159BB3F9503087
:103380009BB2013B9BB21AB2159BA3F8502000BF21
:1033900019B05DF804FB00BFCC1100245C110024BF
:1033A00080010024A01800247819002400B593B0EF
:1033B000019000913A4B0F930F9B1B68002B6BD031
:1033C0000F9B04330A93EFF311830993099BDBB23C
:1033D0008DF8233080230793079B83F3118800BF68
:1033E0009DF823308DF81B302E4B1B680593059BF1
:1033F000B3F950309BB201339BB21AB2059BA3F8CC
:1034000050209DF81B308DF83B304FF0FF33109368
:1034100000230D930F9B1B68119315E0119B5B68B4
:103420000C93119B1B68009A0199119898470D9B6A
:10343000002B04D00D9B1B685A1C0D9B1A600C9B23
:103440001193109B013B1093119B002B02D0109BFA
:10345000002BE3D19DF83B308DF813309DF81330ED
:103460000393039B83F3118800BF00BF0D4B1B68C0
:103470000B930B9BB3F95030012B03D10B9800F049
:103480000FFC09E00B9BB3F950309BB2013B9BB2A0
:103490001AB20B9BA3F8502000BF13B05DF804FBD9
:1034A000781900248001002410B592B001904F4B90
:1034B0000F930F9B0D930D9B0C930C9B0B936FF035
:1034C000004303934A4B1B680A936FF0020309936E
:1034D0000A9B93F84830032B02D10A9B5B6B09933C
:1034E000099B1C460B9A03AB186852E8001F8142E7
:1034F00005D142E8004CBCF1000FBFF35B8F0CBF5D
:1035000001220022002A00D119601346002B01D0AD
:10351000002303E00C9800F00FFD03460893089B7E
:10352000002B08DA089B13F1040FC4D0089B13F199
:103530007D0F02D1BFE700BF00E000BF089B002B5A
:1035400051DB0F9B10331193019B0E9300231093BB
:1035500013E0119B1B680E9A9A4203D16FF010037F
:1035600010930EE00E9B9A68119B1B689B689A4211
:1035700007DC119B1B6804331193119B1B68002B04
:10358000E7D1109B002B06D1119B1A680E9B5A6045
:10359000119B0E9A1A600F9B0793079B0693069B3D
:1035A0000593059B1B6823F000430493059A04AB25
:1035B00018686FF00044BFF35B8F52E8001F814230
:1035C00003D142E8004CBCF1000F0CBF01220022E5
:1035D000002A00D119601346002B03D1069800F091
:1035E000C3FD00BF00BF00BF12B010BD88010024A2
:1035F0008001002410B598B001900091EFF305838D
:103600000E930E9B002B14BF01230023DBB2002B73
:1036100026D04FF0FF33169300231093604B1B69A5
:10362000179315E0179B5B680F93179B1B68009A15
:10363000019917989847109B002B04D0109B1B688A
:103640005A1C109B1A600F9B1793169B013B1693F5
:10365000179B002B00F0A080169B002BE2D19BE073
:103660004F4B1393139B1B69002B00F09580139B0A
:103670000D930D9B0C930C9B0B936FF000430393E6
:10368000484B1B680A936FF0020309930A9B93F857
:103690004830032B02D10A9B5B6B0993099B1C46A4
:1036A0000B9A03AB186852E8001F814205D142E82B
:1036B000004CBCF1000FBFF35B8F0CBF0122002256
:1036C000002A00D119601346002B01D0002303E02B
:1036D0000C9800F031FC03460893089B002B08DA95
:1036E000089B13F1040FC4D0089B13F17D0F02D186
:1036F000BFE700BF00E000BF089B002B4CDB4FF092
:10370000FF33149300231293139B1B69159315E049
:10371000159B5B681193159B1B68009A019915987E
:103720009847129B002B04D0129B1B685A1C129BBB
:103730001A60119B1593149B013B1493159B002B4E
:1037400002D0149B002BE3D1139B0793079B069396
:10375000069B0593059B1B6823F000430493059A81
:1037600004AB18686FF00044BFF35B8F52E8001F92
:10377000814203D142E8004CBCF1000F0CBF012292
:103780000022002A00D119601346002B03D10698AD
:1037900000F0EAFC00BF00BF00BF18B010BD00BFC2
:1037A000880100248001002488B003900291114612
:1037B0001A460B46ADF8063013468DF80530002347
:1037C00007931DE0029B0693069B9DF805201A7245
:1037D000039B0593069B0493059B5A68049B5A60C0
:1037E000049B059A1A60059B5B68049A1A60059B06
:1037F000049A5A60029B2C330293079B0133079370
:10380000BDF80630079A9A42DCDB029B184608B0E6
:10381000704788B0039002911346ADF8063000233C
:10382000079317E0039B0693029B0593069B5A6838
:10383000059B5A60059B069A1A60069B5B68059A71
:103840001A60069B059A5A60029B30330293079BCD
:1038500001330793BDF80630079A9A42E2DB029BD8
:10386000184608B07047000000B585B01A4B0393A6
:103870001A4B0293029B029A1A60029B1A68029BDF
:103880005A600023082203991448FFF78DFF039024
:10389000134B0193019B019A1A60019B1A68019BCB
:1038A0005A600223082203990D48FFF77DFF039019
:1038B0000C4B0093009B009A1A60009B1A68009BB7
:1038C0005A60082203990748FFF7A3FF039000BF3F
:1038D00005B05DF804FB00BF8C1900247C1900249E
:1038E00084190024CC1D00248CB0019000230B937C
:1038F000EFF311830893089BDBB28DF81F30802310
:103900000693069B83F3118800BF9DF81F308DF846
:103910002B303B4B1B68002B21D0019B002B1EDB67
:10392000384B1B68013B019A13400993344B1A68CA
:10393000099B9B0013441B68002B10D0304B1A6866
:10394000099B9B0013441B685B6B019A9A4206D14A
:103950002B4B1A68099B9B0013441B680B930B9B12
:10396000002B3DD0EFF305830593059B002B14BF7F
:1039700001230023DBB2002B02D0234B1B6801E0A4
:10398000224B1B680B9A93422AD0EFF305830493D2
:10399000049B002B14BF01230023DBB283F001033F
:1039A000DBB2002B0ED0194B1B68AC33BFF35B8F1F
:1039B00053E8001F01F1010143E80012002AF7D18A
:1039C000BFF35B8F0B9BAC33BFF35B8F53E8001FE0
:1039D00001F1010143E80012002AF7D1BFF35B8F28
:1039E0009DF82B308DF80F309DF80F300293029B1D
:1039F00083F3118800BF00BF0B9B18460CB07047C3
:103A00007C110024801100245C110024800100241A
:103A100010B58AB00190019B002B00F09F80EFF35E
:103A200005830993099B002B14BF01230023DBB2FC
:103A3000002B02D04B4B1B6801E04B4B1B68019ADB
:103A4000934200F08B80019BAC33BFF35B8F53E854
:103A5000002F02F1FF3143E800100028F7D1BFF337
:103A60005B8F012A26D1019BB0330893089B0793F3
:103A7000079B1B680293029B002B18DB029B013300
:103A80001C46079A02AB1868BFF35B8F52E8001F11
:103A9000814203D142E8004CBCF1000F0CBF01226F
:103AA0000022002A00D119601346002B02D1089889
:103AB00000F05AFBEFF305830693069B002B14BF1F
:103AC00001230023DBB283F00103DBB2002B45D0DE
:103AD000254B1B680193019BAC33BFF35B8F53E80D
:103AE000002F02F1FF3143E800100028F7D1BFF3A7
:103AF0005B8F012A32D1019B4C331B6803F40043D6
:103B0000002B2BD0019BB0330593059B0493049BA2
:103B10001B680393039B002B18DB039B01331C469C
:103B2000049A03AB1868BFF35B8F52E8001F814211
:103B300003D142E8004CBCF1000F0CBF012200226F
:103B4000002A00D119601346002B02D1059800F01D
:103B50000BFB4FF47A700AF02FF9FAE700BF0AB0B6
:103B600010BD00BF5C110024800100248CB00190C6
:103B700000230B93EFF311830993099BDBB28DF8BC
:103B8000233080230793079B83F3118800BF9DF8A0
:103B900023308DF82B302C4B1A68019B9B0013446B
:103BA0001B680B930B9B002B3DD0EFF30583069313
:103BB000069B002B14BF01230023DBB2002B02D095
:103BC000224B1B6801E0224B1B680B9A93422AD0C0
:103BD000EFF305830593059B002B14BF01230023FE
:103BE000DBB283F00103DBB2002B0ED0184B1B6855
:103BF000AC33BFF35B8F53E8001F01F1010143E8D1
:103C00000012002AF7D1BFF35B8F0B9BAC33BFF3DD
:103C10005B8F53E8001F01F1010143E80012002A05
:103C2000F7D1BFF35B8F9DF82B308DF813309DF8E3
:103C300013300393039B83F3118800BF00BF0B9BDA
:103C400018460CB0704700BF7C1100245C110024A2
:103C50008001002400B587B0019000910F4B1B68D4
:103C600004930023059310E00598FFF77FFF03906E
:103C7000039B002B06D0019B00990398984703985B
:103C8000FFF7C6FE059B01330593059A049B9A42F4
:103C9000EADB00BF00BF07B05DF804FB8011002421
:103CA00000B58BB00190EFF311830693069BDBB256
:103CB0008DF8173080230493049B83F3118800BF91
:103CC0009DF817308DF82730019B0022A3F8502073
:103CD000EFF305830793079B002B1A4B1B68089390
:103CE000089B002B0AD000F0C5F80346002B05D036
:103CF000154B1B680199184600F098F8019B4C334E
:103D00001B6803F01803082B0BD1019B5B6D002B84
:103D100007D10D4B1B68019A9A4202D0019B1422D5
:103D20005A659DF827308DF80F309DF80F300293BB
:103D3000029B83F3118800BF00BF00BF0BB05DF88A
:103D400004FB00BF601100248001002400B591B085
:103D5000039002910192EFF311830D930D9BDBB25F
:103D60008DF8333080230B930B9B83F3118800BFB6
:103D70009DF833308DF83F30039B93F84830052B86
:103D80002DD1039B9B6F5B6803F00403002B26D0AF
:103D9000039B9B6F0893089B1B6823F000430793CA
:103DA000079B23F000436FF00042934201D0079B32
:103DB00001E04FF0FF330E939DF83F308DF82B302C
:103DC0009DF82B300993099B83F3118800BF00BF36
:103DD0000E9B114A0199029808F060FA18E09DF8CC
:103DE0003F308DF81B309DF81B300593059B83F306
:103DF000118800BF00BF039B93F848301A46074B59
:103E000053F82230019A1946029809F0B9FE00BF12
:103E100000BF11B05DF804FB18050508A8050508EA
:103E200082B0019000BF02B07047000086B00190E0
:103E300000910F4B0493049B5B889BB2ADF80A3052
:103E4000EFF305830593059B002B14BF012300238B
:103E5000DBB283F00103DBB2002B01D0022000DFD4
:103E6000EFF305830393039B002B00BF06B070475D
:103E70002C24002486B000238DF80F302C4B1B68B7
:103E80000493049BB3F95030002B4BD1294B1B6892
:103E900005933EE0059B1B68029302E0049B1B68B0
:103EA0000493059B9A6B049B9B6B9A42F6DB049BE5
:103EB0005B680193019B002B17D1059B049A1A6044
:103EC000059B00225A60049B059A5A60184A059B7C
:103ED0001360049B022283F84820059B032283F889
:103EE000482001238DF80F300FE0059B049A1A60DB
:103EF000059B019A5A60019B059A1A60049B059ADA
:103F00005A60059B022283F84820059B0493029B7C
:103F10000593059B002BBDD1064B00221A60054B73
:103F200000225A609DF80F30184606B0704700BF57
:103F3000800100246011002400B595B00190894BE8
:103F40001B680F930023139300231093019B5B685E
:103F500003F00403002B14BF012300238DF83B3032
:103F6000EFF311830D930D9BDBB28DF8333080237B
:103F70000B930B9B83F3118800BF9DF833308DF8B2
:103F80003A309DF83B30002B2DD0019BBFF35B8F67
:103F900053E8002F42F0004143E800100028F7D119
:103FA000BFF35B8F1192119B23F000436FF000422F
:103FB000934206D0119B23F000431846FFF794FC70
:103FC0001090109B002B0CBF012300238DF84B3069
:103FD0009DF84B3083F00103DBB2002B17D0109813
:103FE000FFF716FD13E0019BBFF35B8F53E8002F33
:103FF00002F1FF3143E800100028F7D1BFF35B8FD7
:104000001346002BCCBF012300238DF84B309DF8C5
:104010004B30002B13D09DF83B30002B00F09180EB
:104020000F9B5B6B1193019B9B68002B03D0119B33
:1040300043F000431193019B119A1A6081E00F9B9A
:10404000019A9A670F9B0022A3F852200F9801F063
:1040500039F90F9B052283F84820019B08330F9AFA
:104060000A9209930A9B9B6B089300238DF81F30DB
:10407000099B1B68069302E0069B1B680693069B40
:10408000002B04D0069B9B6B089A9A42F4DD069B9A
:10409000002B22D1099B5B680593059B002B0FD158
:1040A0000A9B00221A600A9B00225A60099B0A9A06
:1040B0001A60099B0A9A5A6001238DF81F302EE07E
:1040C0000A9B00221A600A9B059A5A60059B0A9A6D
:1040D0001A60099B0A9A5A6021E0069B5B68059367
:1040E000059B002B0FD10A9B069A1A600A9B00229F
:1040F0005A60069B0A9A5A60099B0A9A1A60012321
:104100008DF81F300BE00A9B069A1A600A9B059AED
:104110005A60059B0A9A1A60069B0A9A5A60114BCC
:104120001B680F991846FFF781FE0F9BB3F95230B9
:10413000002B04D00F9BB3F952305B4200E0002308
:1041400013939DF83A308DF813309DF81330039394
:10415000039B83F3118800BF00BF139B184615B063
:104160005DF804FB8001002410B598B00190002395
:10417000179300238DF81330019B5B6803F0040351
:10418000002B14BF012300238DF85B30002315930F
:10419000EFF311830C930C9BDBB28DF82F3080234F
:1041A0000A930A9B83F3118800BF9DF82F308DF886
:1041B0005330019B11939DF85B308DF843300DF126
:1041C00013030F936FF000430E9300230D939DF89C
:1041D0004330002B1ED0119BBFF35B8F53E8002FA1
:1041E00042F0004143E800100028F7D1BFF35B8F95
:1041F0000E920E9BDB0FDAB20F9B1A700F9B1B788F
:1042000083F00103DBB2002B31D0119B6FF0004231
:104210001A602CE0119B1B680393039B6FF0004214
:10422000934203D16FF04A030D931BE0119A039B55
:1042300001331C4603AB1868BFF35B8F52E8001FC5
:10424000814203D142E8004CBCF1000F0CBF0122B7
:104250000022002A00D11960134683F00103DBB26B
:10426000002BDAD1039BDB0FDAB20F9B1A700D9B88
:104270001593159B002B5AD19DF85B3083F00103F9
:10428000DBB2002B9DF81330002B50D0019B08337C
:104290000993099B1B680893089B002B18D0089B67
:1042A0001B680793079B002B06D1099B00221A600D
:1042B000099B00225A6005E0099B079A1A60079B38
:1042C00000225A60089B00221A60089B00225A6054
:1042D000089B1793179B002B29D01D4B1B6813932A
:1042E0009DF85B30002B0ED0019B9B68002B01D109
:1042F000002301E04FF000431293019B179A516B8A
:10430000129A0A431A60179B5833184600F0D0FCE3
:10431000179B00229A67179800F06EFE0346002B49
:1043200005D00B4B1B6813991846FFF77FFD9DF8CE
:1043300053308DF81B309DF81B300593059B83F39C
:10434000118800BF00BF159B184618B010BD00BFF4
:104350008001002486B00390029111461A460B4654
:10436000ADF8063013468DF805300023059321E0A3
:10437000029B9DF8052083F82420029B03F128026C
:1043800002920493049B00221A60039B1B68002B7B
:1043900006D1039B049A1A60039B049A5A6006E0B4
:1043A000039B5B68049A1A60039B049A5A60059BFE
:1043B00001330593BDF80630059A9A42D8DB029B7B
:1043C000184606B0704786B00390029111461A460F
:1043D0000B46ADF8063013468DF8053000230593E3
:1043E00020E0029B9DF805201A76029B03F11C0237
:1043F00002920493049B00221A60039B1B68002B0B
:1044000006D1039B049A1A60039B049A5A6006E043
:10441000039B5B68049A1A60039B049A5A60059B8D
:1044200001330593BDF80630059A9A42D9DB029B09
:10443000184606B07047000000B583B01F4B0193CB
:104440001F4B00221A601E4B00225A601D4B002297
:104450001A601C4B00225A601B4B00221A601A4B38
:1044600000225A60194B00221A60184B00225A6031
:10447000174B00221A60164B00225A6000230422B8
:1044800001991048FFF766FF019002230822019965
:104490000D48FFF75FFF01900023042201990B48AC
:1044A000FFF791FF01900223082201990848FFF7C6
:1044B0008AFF019000BF03B05DF804FBFC1D0024DF
:1044C000D41D0024DC1D0024E41D0024EC1D002468
:1044D000F41D002400B58DB00590049103920023D3
:1044E0000B93059B002B0BD0039B002B08D0059B47
:1044F0005B6B002B04DD059B93F84830002B03D148
:10450000049B00221A704EE0059B4C331B6803F09D
:104510000303012B16D1059BC0330893059B5A6CEE
:10452000089B5B6800931346214A0399049807F09F
:10453000B5FE0790079B002B2DDD079B0B9A1344BC
:104540000B9328E0059800F026FF0A900A9B1A1D9D
:104550000A92002B1FD014E0049A0B9BD018039AE8
:104560000B9BD11A0A9B1A1D0A921B68114A07F06D
:1045700095FE0990099B002B0CDB099B0B9A1344B9
:104580000B930A9B1B68002B05D00B9A039B9A4246
:10459000E2D300E000BF039B013B0B9A9A4202D397
:1045A000039B013B0B930B9B18460DB05DF804FB7E
:1045B000CC050508D405050800B583B00190019B22
:1045C0001C33184600F0F3FE00BF03B05DF804FB97
:1045D00000B583B00190019B00221A61019B00226B
:1045E0005A61019B1C3300220021184607F079FD17
:1045F00000BF03B05DF804FB00B58DB007900691D5
:10460000059204934FF4C8700AF034F80A900A9B9C
:10461000002B03D16FF00B030B932CE00A9B4C3360
:104620004FF400521A600F9B02930E9B0193049B60
:104630000093059B069A07990A9800F073FF0B9068
:104640000B9B002B03DA0A9809F0BEFF13E00A9BCC
:104650005B6B09930499099801F05FFB0B900B9B2E
:10466000002B03DA0A9800F0ADFF04E00A9801F08D
:1046700083FA099B0B930B9B18460DB05DF804FB66
:1046800000B591B0059004910392029300230F931B
:10469000129B002B1AD106AB1946002000F024FE15
:1046A0000F900F9B002B11D107AB184607F09FFD11
:1046B00006AA07AB1146184607F0D5FD07AB4FF425
:1046C0000061184607F0DAFD07AB12930F9B002B31
:1046D00025D1149B002B03D106F034FF034600E0E4
:1046E000149B0193139B0093129B029A03990498C5
:1046F000FFF782FF0E9007AB129A9A4203D107ABE5
:10470000184607F0C5FD0E9B002B02DA0E9B0F9397
:1047100005E00E9B002B02D0059B0E9A1A600F9BA2
:10472000184611B05DF804FB00B58BB007900691F8
:10473000059204934FF0FF330893059B002B02D0A2
:10474000059B1B6800E0002308A80D9A02920C9AB2
:104750000192049A0092069A0799FFF791FF099037
:10476000099B002B01DB089B00E0099B18460BB05E
:104770005DF804FB82B01C4B00221A601A4B002229
:104780005A600023019323E0184A019B9B011344C4
:10479000083301221A70019B9B01144A13440093B1
:1047A000009B00221A60104B1B68002B06D10E4A9A
:1047B000009B13600C4A009B536006E00A4B5B6849
:1047C000009A1A60084A009B5360019B01330193D1
:1047D000019B072BD8DD064B00221A60044B0022F8
:1047E0005A6000BF02B070472C2100243C210024F5
:1047F0003421002400B599B00190002303930023D5
:104800000493EFF311830F930F9BDBB28DF83B30D2
:1048100080230D930D9B83F3118800BF9DF83B30DF
:104820008DF853306E4B1B6817936BE0179B1B681A
:104830001393179BDB68019A9A4261D1179B1193DE
:10484000674B1B68002B49D0119B002B46D0644B53
:104850001B68119A9A4210D1614A119B1B68136020
:104860005F4B5B68119A9A4203D15D4B00225A60FC
:1048700034E0119B00221A6030E0594B1B681693FC
:1048800029E0169B1B68119A9A4221D1169B0C9322
:10489000534B0B930C9B1B680A930B9B1B68002BC1
:1048A00015D00A9B002B12D00B9B5B680A9A9A4288
:1048B00006D10B9B0C9A5A600C9B00221A6003E0F5
:1048C0000A9B1A680C9B1A600A9B00221A6000BFA0
:1048D000169B1B681693169B002BD2D1179B109327
:1048E000109B00221A60039B002B04D1109B0393A2
:1048F000109B049304E0049B109A1A60109B04938D
:10490000139B1793179B002B90D19DF853308DF874
:1049100027309DF827300893089B83F3118800BF48
:1049200000BF039B179352E0179B1B681393179BC1
:104930001293039B002B44D0129B002B41D0039B6E
:10494000129A9A420DD1129B1B680393049B129AF0
:104950009A4202D10023049333E0129B00221A6092
:104960002FE0039B159329E0159B1B68129A9A422E
:1049700021D1159B079303AB0693079B1B680593F7
:10498000069B1B68002B15D0059B002B12D0069BA5
:104990005B68059A9A4206D1069B079A5A60079B64
:1049A00000221A6003E0059B1A68079B1A60059BAA
:1049B00000221A6000BF159B1B681593159B002BE6
:1049C000D2D10121179800F0F9F8139B1793179B88
:1049D000002BA9D100BF00BF19B05DF804FB00BFD8
:1049E000342100248AB0019000230993019B002BFD
:1049F0002DD0EFF311830693069BDBB28DF81730B1
:104A000080230493049B83F3118800BF9DF8173023
:104A10008DF81F30104B1B68089309E0089B019A22
:104A20009A4202D1019B099305E0089B1B680893F9
:104A3000089B002BF2D19DF81F308DF80F309DF8A8
:104A40000F300293029B83F3118800BF00BF099BC4
:104A500018460AB0704700BF3421002400B591B059
:104A600001900B468DF80330EFF311830B930B9BF2
:104A7000DBB28DF82B3080230993099B83F31188D7
:104A800000BF9DF82B308DF83B30019B0D93494BB7
:104A90001B68002B49D00D9B002B46D0454B1B6853
:104AA0000D9A9A4210D1434A0D9B1B681360414BEB
:104AB0005B680D9A9A4203D13E4B00225A6034E063
:104AC0000D9B00221A6030E03A4B1B680F9329E0DF
:104AD0000F9B1B680D9A9A4221D10F9B0893354B6F
:104AE0000793089B1B680693079B1B68002B15D038
:104AF000069B002B12D0079B5B68069A9A4206D150
:104B0000079B089A5A60089B00221A6003E0069BE4
:104B10001A68089B1A60069B00221A6000BF0F9B50
:104B20001B680F930F9B002BD2D1019B1B7A03F0C4
:104B30000103002B23D0019B0C930C9B00221A60D5
:104B40001D4B1B68002B06D11B4A0C9B13601A4A95
:104B50000C9B536006E0184B5B680C9A1A60164A6F
:104B60000C9B53609DF83B308DF817309DF8173043
:104B70000493049B83F3118800BF00BF16E09DF8E7
:104B80003B308DF80F309DF80F300293029B83F37A
:104B9000118800BF00BF9DF80330002B03D001989F
:104BA00009F022FD02E0019809F00EFD00BF11B0EE
:104BB0005DF804FB342100242C21002400B585B0CD
:104BC00001900B468DF803301B4B1B689B680293CA
:104BD00000230393019B002B03D16FF01503039374
:104BE00017E0019B5B7A012B08D9019B5B7A013BA3
:104BF000DAB2019B5A72012303930AE0019B1C3332
:104C0000184600F055F89DF8033019460198FFF753
:104C100025FF029B4C33BFF35B8F53E8001F01F16C
:104C2000FF3143E80012002AF7D1BFF35B8F039BEB
:104C3000184605B05DF804FB8001002400B585B07E
:104C4000019000230393182101980BF0FDFF0290BF
:104C5000029B002B03D16FF00B03039313E0019B26
:104C60005A6F019B1B6FD31A9AB2029BDA80019B89
:104C70009B685A6B029B1A60029B0022DA60019BC0
:104C80005A6B029B1A61039B184605B05DF804FB42
:104C900082B0064B0193019B019A1A60019B1A682E
:104CA000019B5A6000BF02B0704700BF3C23002444
:104CB0008AB001906FF01503099300238DF823301B
:104CC000EFF311830693069BDBB28DF81730802338
:104CD0000493049B83F3118800BF9DF817308DF86F
:104CE0002230019B002B24D0019BDB68002B20D0BD
:104CF000184B1A68019B9A420CBF012300238DF8C0
:104D00002330019B0793079B1B68079A52685A60E0
:104D1000079B5B68079A12681A60079B00221A605B
:104D2000079B1A68079B5A60019B0022DA600023E8
:104D300009939DF822308DF80F309DF80F300293C3
:104D4000029B83F3118800BF00BF099B18460AB07D
:104D5000704700BF3C23002408B50BF0CBFA00F0ED
:104D600065F800BF08BD00008AB01B4B0593EFF348
:104D700011830493049BDBB28DF80F3080230293E0
:104D8000029B83F3118800BF9DF80F308DF8073028
:104D9000059B1B685A1C059B1A609DF807308DF80F
:104DA00027300E4B1B6801330C4A13600A4B0893E3
:104DB0009DF827308DF81F309DF81F308DF81E307C
:104DC0009DF81E300693069B83F3118800BF00BF39
:104DD00000BF00BF0AB070474823002444230024CA
:104DE00000B585B0019001F02FFA0390039B0D4AA6
:104DF000A2FB03235B091A46019B1A60019B1B68F7
:104E0000642202FB03F31A46039B9B1A0393039B42
:104E1000054A03FB02F2019B5A600023184605B0C5
:104E20005DF804FB1F85EB518096980000BF70472A
:104E300000B58BB003900291019200238DF82330CE
:104E400000230793029B03F003030293029B022BB0
:104E50000CD1334B0993039B099A9A60099B5B6BB6
:104E6000002B12D001238DF823300EE0029B002B83
:104E700008D1039B03F1C002039B9A60039B9B68CC
:104E8000099302E0039B9B6809939DF8233083F00C
:104E90000103DBB2002B3DD0079B002B3ADB099BC3
:104EA0000022DA60099B00221A61039B099A9A602A
:104EB000099B5033184615F062FC099801F066F919
:104EC0000790079B002B25DB099BBC330693069BB1
:104ED00000221A61069B0593059B6FF0004200219A
:104EE000184607F0FEF80490049B002B04DB059B9A
:104EF0000421184607F033F900BF099B0022DA624B
:104F0000099B00221A63099B1833002200211846CE
:104F100007F0E7F8079B18460BB05DF804FB00BFED
:104F20005C23002400B587B00190019B4C331B68C3
:104F300003F00203002B14BF012300238DF8173068
:104F4000019B9B680493049B9C339DF8172011469A
:104F5000184609F0A9FB019B0C330393039B002225
:104F60001A60049BDB68002B06D1049B039ADA606D
:104F7000049B039A1A6106E0049B1B69039A1A605A
:104F8000049B039A1A61049B074A934203D0019B36
:104F90005A6B049B1A60049B5B6B049A12681A6339
:104FA00000BF07B05DF804FB5C23002400B583B0AC
:104FB0000023019303210F4816F086FE0090009B0A
:104FC000002B08D10121002016F06CFA02210020EC
:104FD00016F068FA08E0009B002B02DD009816F03E
:104FE0001FFA6FF016030193019B184603B05DF89A
:104FF00004FB00BFD805050890B001907A4B1B68F0
:105000000E930E9BB3F95030002B6EDD0E9B9A6B06
:10501000019B9B6B9A4268DA019B0D93734B0C9337
:105020000D9B9B6B0B9300238DF82B300C9B1B6807
:10503000099302E0099B1B680993099B002B04D08C
:10504000099B9B6B0B9A9A42F4DD099B002B22D1A2
:105050000C9B5B680893089B002B0FD10D9B0022D3
:105060001A600D9B00225A600C9B0D9A1A600C9BD3
:105070000D9A5A6001238DF82B302EE00D9B0022F3
:105080001A600D9B089A5A60089B0D9A1A600C9B37
:105090000D9A5A6021E0099B5B680893089B002BDE
:1050A0000FD10D9B099A1A600D9B00225A60099B33
:1050B0000D9A5A600C9B0D9A1A6001238DF82B30C3
:1050C0000BE00D9B099A1A600D9B089A5A60089B89
:1050D0000D9A1A60099B0D9A5A60019B012283F870
:1050E000482000238DF83F3078E0019B07933E4B2A
:1050F0000693079B9B6B059300238DF81330069B4B
:105100001B68039302E0039B1B680393039B002B24
:1051100004D0039B9B6B059A9A42F4DD039B002B02
:1051200022D1069B5B680293029B002B0FD1079B49
:1051300000221A60079B00225A60069B079A1A6099
:10514000069B079A5A6001238DF813302EE0079BC7
:1051500000221A60079B029A5A60029B079A1A6003
:10516000069B079A5A6021E0039B5B680293029BAF
:10517000002B0FD1079B039A1A60079B00225A60ED
:10518000039B079A5A60069B079A1A6001238DF8C1
:1051900013300BE0079B039A1A60079B029A5A6030
:1051A000029B079A1A60039B079A5A609DF8133076
:1051B000002B0CD0019B032283F84820019B1B6825
:1051C000022283F8482001238DF83F3006E0019B3E
:1051D000022283F8482000238DF83F309DF83F30AD
:1051E000184610B0704700BF8001002460110024F1
:1051F00088B0019000238DF81F30019B93F8483050
:105200002F4ADB0013445B6803F00803002B0AD02D
:10521000019B9B6F019A92F848201146284A52F848
:105220003120134406E0019B93F848301A46244B82
:1052300053F832300693019B5B68002B14D1019B1D
:1052400093F848301E4ADB0013445B6803F0040304
:10525000002B09D0019B1B680593059B032283F853
:10526000482001238DF81F30019B0493049B5B6849
:105270000393049B1B680293039B002B03D1069BA3
:10528000029A1A6002E0039B029A1A60029B002BAA
:1052900003D1069B039A5A6002E0029B039A5A606C
:1052A000049B00221A60049B00225A60019B00228A
:1052B00083F848209DF81F30184608B0704700BF9B
:1052C0008411002400B583B001900198FFF790FF8E
:1052D000044B1B68002B01D0FEF7CCFD00BF03B0D0
:1052E0005DF804FB6011002400B587B001900091C7
:1052F00000230593009B002B03D16FF0150305934A
:1053000021E0134B1B680493019B002B04D0049BEA
:105310005B6B019A9A4204D1049B9A6B009B1A60C2
:1053200011E00198FEF7E0FA0390039B002B03D1F4
:105330006FF00203059303E0039B9A6B009B1A60D6
:105340000398FEF765FB059B184607B05DF804FB64
:105350008001002400B585B001900091009901986A
:10536000FFF7C2FF0390039B002B08DA06F090FDC5
:105370000246039B5B4213604FF0FF330393039B92
:10538000184605B05DF804FB82B00190019B1B6FCD
:10539000184602B0704700B583B001900198FFF73E
:1053A000F3FF0346DB68184603B05DF804FB10B456
:1053B00087B00190019B5B6803F00403002B14BFCE
:1053C000012300238DF817309DF81730002B01D0F2
:1053D000019B00E0019B04939DF81730002B02D045
:1053E0006FF0004300E001230393049B1B680293CA
:1053F0009DF81730002B02D0029B002B23DB9DF879
:10540000173083F00103DBB2002B02D0029B002B8C
:1054100019DB039C049A02AB1868BFF35B8F52E858
:10542000001F814203D142E8004CBCF1000F0CBFC9
:1054300001220022002A00D11960134683F00103E3
:10544000DBB2002BD4D10023184607B05DF8044B23
:105450007047000000B58BB0059004910392029351
:105460000C9B5B6908930C9B9B6907930C9B5B6887
:105470000693059B9B685B6B0E99184606F076F8C1
:105480000990099B002B46DB01220299059800F048
:10549000EBFF0990099B002B3DDB079B002B07D0FE
:1054A0000F9B089A079905980BF0FBFB099005E004
:1054B0000F9A089905980BF077FA0990099B002B31
:1054C0001BDB0598FFF7BAFB0990099B002B14DB47
:1054D000099B002B11DB0D9A0499059800F074FAD2
:1054E0000990099B002B08DB0F9B0093039B0C4A40
:1054F0000699059800F01AFB0990099B002B0ADA1F
:10550000079B002B07D1059B1B6F002B03D00F9926
:1055100005980BF0DCFA099B18460BB05DF804FB0C
:10552000E95B000800B58DB00790069105920493E1
:10553000079B4C331B6803F003030A930023099372
:1055400000230B930B9B002B36D1079B4C331B681E
:10555000099A19460798FFF76BFC0B900B9B002BE1
:105560002ADB0798FFF734F8079BB03300220021AD
:10557000184606F0B6FD0A9B0393109B02930F9BFF
:1055800001930E9B0093049B059A06990798FFF7D9
:1055900061FF0B900B9B002B03DB0798FFF7C2FC0E
:1055A0000AE00798FFF708F8079BB0331846FFF7A3
:1055B000FEFE079800F0ACFE0B9B18460DB05DF8A0
:1055C00004FB000000B58DB00190EFF31183079349
:1055D000079BDBB28DF81B3080230593059B83F37B
:1055E000118800BF9DF81B308DF82F30019B0A9366
:1055F0000A9B5B6809930A9B1B680893099B002B15
:1056000003D1184A089B136002E0099B089A1A60AC
:10561000089B002B03D1134A099B536002E0089BAF
:10562000099A5A600A9B00221A600A9B00225A605B
:105630009DF82F308DF813309DF813300393039BA2
:1056400083F3118800BF00BF019B4C331B6803F03C
:1056500003031946019801F0AFFD00BF0DB05DF8DE
:1056600004FB00BF7011002400B599B001906FF0E9
:105670000B031593EFF311831093109BDBB28DF89E
:105680003F3080230E930E9B83F3118800BF9DF85B
:105690003F308DF853306D4B1B6801331793002357
:1056A000169338E0179B002B01DC01231793684BFE
:1056B0001B68013B179A13401393664B1A68139BA0
:1056C0009B0013441B68002B1FD1624B1A68139B6D
:1056D0009B001344019A1A60019B179A5A63019B1D
:1056E000AC3301221A60594A179B13609DF853305E
:1056F0008DF837309DF837300C930C9B83F311886D
:1057000000BF00BF002315930AE0179B01331793D6
:10571000169B013316934E4B1B68169A9A42C1DBB7
:10572000159B002B00F08C804A4B1B6812939DF850
:1057300053308DF82F309DF82F300A930A9B83F356
:10574000118800BF00BF424B1B68DB00184608F001
:1057500091FF1190119B002B03D16FF00B03159358
:105760006FE0EFF311830993099BDBB28DF82330CF
:1057700080230793079B83F3118800BF9DF8233094
:105780008DF85330334B1B68129A9A420FD09DF814
:1057900053308DF81B309DF81B300593059B83F328
:1057A000118800BF00BF119808F00EFF47E0284B9A
:1057B0001B685B00264A13600023169323E0254BE9
:1057C0001A68169B9B0013441B68002B17D0214BB3
:1057D0001A68169B9B0013441B685A6B1C4B1B6872
:1057E000013B134013931B4B1A68169B9B001A44F2
:1057F000139B9B0011990B4412681A6000E000BFD4
:10580000169B01331693124B1B68002B00DA0133F1
:105810005B101A46169B9342D1DB0E4A119B136014
:105820009DF853308DF813309DF813300393039B8C
:1058300083F3118800BF00BF129808F0C5FE19E776
:1058400000BF159B184619B05DF804FB78110024C1
:10585000801100247C11002400B58FB003900291C8
:1058600001920093564B1B680D930398FFF7FCFEC3
:105870000C900C9B002B40F09E80039B1B6F0B93A6
:10588000039B5A6B0B9B1A61039B029A9A63039BBF
:10589000029ADA63039B019A1A64009A039B5A6482
:1058A000109B03F003031093039B4C33BFF35B8FF8
:1058B00053E8001F21F0030143E80012002AF7D14A
:1058C000BFF35B8F039B4C33109ABFF35B8F53E89E
:1058D000000F40EA020043E800010029F7D1BFF3BE
:1058E0005B8F039B4C33BFF35B8F53E8001F21F0AA
:1058F000180143E80012002AF7D1BFF35B8F039B26
:105900004C33BFF35B8F53E8001F41F0080143E8BD
:105910000012002AF7D1BFF35B8F039B14225A6554
:10592000039B0D9A7C337C3292E8030083E80300EA
:10593000039B002283F8482003980BF0F1F9EFF362
:1059400011830893089BDBB28DF81F3080230693E8
:10595000069B83F3118800BF9DF81F308DF82B3014
:10596000039B0993099B00225A60164B1A68099BF6
:105970001A60144B1B68002B06D1124A099B136056
:10598000104A099B536006E00E4B1B68099A5A6047
:105990000C4A099B1360039B042283F848209DF85E
:1059A0002B308DF817309DF817300493049B83F348
:1059B000118800BF00BF0C9B18460FB05DF804FBB8
:1059C000800100247011002400B58DB00390029175
:1059D000019200230793029B002B01D1524B0293AB
:1059E000029808F04EF9034601330A930023099305
:1059F000019B002B28D020E0099B9B00019A1344B7
:105A00001B68184608F03DF902460A9B134401330F
:105A10000A93039BDB6E0A9A9A4203D36FF0230327
:105A2000079311E0099B01330993099BB3F5807F2C
:105A300003DD6FF00603079306E0099B9B00019AC4
:105A400013441B68002BD7D1079B002B67D1099B00
:105A500002339B000693069A0A9B13441946039847
:105A60000BF0F2F80590059B002B03D16FF00B03B0
:105A7000079354E0059A069B13440B93059B0B9ADE
:105A80001A60029808F0FDF80346013304930A9A5D
:105A900002990B9808F074F80B9A049B13440B932B
:105AA0000A9A049BD31A0A930023089326E0089BC2
:105AB00001339B00059A13440B9A1A60089B9B00C4
:105AC000019A13441B68184608F0DBF803460133BB
:105AD0000493089B9B00019A13441B680A9A194679
:105AE0000B9808F04DF80B9A049B13440B930A9AF9
:105AF000049BD31A0A93089B01330893089A099BC5
:105B00009A42D4DB099B01339B00059A134400227F
:105B10001A600398FFF738FC0246059BD360079B89
:105B200018460DB05DF804FBE805050800B587B020
:105B30000590049103920293089B0093029B039AA1
:105B400004990598FFF788FE0346184607B05DF8EC
:105B500004FB00B587B005900491039202930123E2
:105B60000093029B039A04990598FFF775FE03467C
:105B7000184607B05DF804FB00B58BB00190EFF359
:105B800011830793079BDBB28DF81B3080230593AD
:105B9000059B83F3118800BF9DF81B308DF82730DB
:105BA000104B1B680893019801F020FA0198FFF749
:105BB00023FA0346002B05D00A4B1B6808991846A8
:105BC000FEF734F99DF827308DF813309DF8133027
:105BD0000393039B83F3118800BF00BF00BF0BB08A
:105BE0005DF804FB8001002400B587B0194B1B68E9
:105BF0000393039B4C331B6803F003030293039B43
:105C00005B6C0193012305930398FFF7C4FB00909D
:105C10000023049302E0049B01330493009B002BB8
:105C200006D0049B9B00009A13441B68002BF2D102
:105C3000029B022B05D1019B00990498984705907F
:105C400004E0009A0499019806F03EFA059800F0E5
:105C500053F900BF8001002400B583B0019000918A
:105C6000019801F0A5F90246009B9B681946104671
:105C700014F0DEFF00BF03B05DF804FB00B583B095
:105C800001900091019801F093F9009B9968009BA5
:105C9000DB681A4614F0A6FF0346184603B05DF809
:105CA00004FB00B587B00190009100230593019893
:105CB00001F07EF90490009B9B681946049814F04B
:105CC000B7FF009B03F11401009BDA68009B1B697E
:105CD000049815F0E3FF0390039B002B02DA039B6B
:105CE000059315E0009B9B68039A9A4210D0009B95
:105CF0009B681A460399049814F074FF0590059B5D
:105D0000002B01DB002305930399049814F090FF06
:105D1000059B184607B05DF804FB00B587B00190FD
:105D2000009100230593009B1B7803F02003002BB8
:105D300011D00198FDF7D8FD0490049B002B0AD0E8
:105D4000049B009A7C330C3292E8030083E8030042
:105D50000498FDF75DFE009B1B7803F00403002B05
:105D600012D0059B002B1BD1009B5B680393009B0B
:105D70001B7803F00803002B12D103AB19460198DE
:105D800001F074FA05900BE0009B1B7803F0080308
:105D9000002B05D003AB19460020FFF7A5FA0590AC
:105DA000059B002B0CD1009B1B7803F00803002BF4
:105DB00006D0009B9B6803AA1946019801F0A8FC35
